{
  "_format": "hh-sol-artifact-1",
  "contractName": "Xeenon",
  "sourceName": "contracts/Xeenon.sol",
  "abi": [
    {
      "inputs": [
        {
          "internalType": "contract IERC20",
          "name": "_acceptedToken",
          "type": "address"
        },
        {
          "internalType": "address",
          "name": "_admin",
          "type": "address"
        },
        {
          "internalType": "address",
          "name": "_treasuryReceiver",
          "type": "address"
        }
      ],
      "stateMutability": "nonpayable",
      "type": "constructor"
    },
    {
      "anonymous": false,
      "inputs": [
        {
          "indexed": true,
          "internalType": "address",
          "name": "previousAdmin",
          "type": "address"
        },
        {
          "indexed": true,
          "internalType": "address",
          "name": "newAdmin",
          "type": "address"
        }
      ],
      "name": "AdminChanged",
      "type": "event"
    },
    {
      "anonymous": false,
      "inputs": [
        {
          "indexed": true,
          "internalType": "bytes32",
          "name": "id",
          "type": "bytes32"
        }
      ],
      "name": "BatchTransfer",
      "type": "event"
    },
    {
      "anonymous": false,
      "inputs": [
        {
          "indexed": true,
          "internalType": "address",
          "name": "from",
          "type": "address"
        },
        {
          "indexed": false,
          "internalType": "uint256",
          "name": "deposit",
          "type": "uint256"
        },
        {
          "indexed": false,
          "internalType": "uint256",
          "name": "creditsAfter",
          "type": "uint256"
        }
      ],
      "name": "Deposit",
      "type": "event"
    },
    {
      "anonymous": false,
      "inputs": [],
      "name": "GlobalFreeze",
      "type": "event"
    },
    {
      "anonymous": false,
      "inputs": [
        {
          "indexed": true,
          "internalType": "address",
          "name": "previousOwner",
          "type": "address"
        },
        {
          "indexed": true,
          "internalType": "address",
          "name": "newOwner",
          "type": "address"
        }
      ],
      "name": "OwnershipTransferred",
      "type": "event"
    },
    {
      "anonymous": false,
      "inputs": [
        {
          "indexed": true,
          "internalType": "bytes32",
          "name": "role",
          "type": "bytes32"
        },
        {
          "indexed": true,
          "internalType": "address",
          "name": "account",
          "type": "address"
        },
        {
          "indexed": true,
          "internalType": "address",
          "name": "sender",
          "type": "address"
        }
      ],
      "name": "RoleGranted",
      "type": "event"
    },
    {
      "anonymous": false,
      "inputs": [
        {
          "indexed": true,
          "internalType": "bytes32",
          "name": "role",
          "type": "bytes32"
        },
        {
          "indexed": true,
          "internalType": "address",
          "name": "account",
          "type": "address"
        },
        {
          "indexed": true,
          "internalType": "address",
          "name": "sender",
          "type": "address"
        }
      ],
      "name": "RoleRevoked",
      "type": "event"
    },
    {
      "anonymous": false,
      "inputs": [
        {
          "indexed": true,
          "internalType": "bytes32",
          "name": "id",
          "type": "bytes32"
        }
      ],
      "name": "SingleTransfer",
      "type": "event"
    },
    {
      "anonymous": false,
      "inputs": [
        {
          "indexed": true,
          "internalType": "address",
          "name": "from",
          "type": "address"
        },
        {
          "indexed": true,
          "internalType": "address",
          "name": "to",
          "type": "address"
        },
        {
          "indexed": false,
          "internalType": "uint256",
          "name": "value",
          "type": "uint256"
        },
        {
          "indexed": false,
          "internalType": "uint256",
          "name": "fee",
          "type": "uint256"
        },
        {
          "indexed": false,
          "internalType": "uint256",
          "name": "fromCreditsAfter",
          "type": "uint256"
        },
        {
          "indexed": false,
          "internalType": "uint256",
          "name": "toCreditsAfter",
          "type": "uint256"
        },
        {
          "indexed": false,
          "internalType": "bytes32",
          "name": "key",
          "type": "bytes32"
        }
      ],
      "name": "Transfer",
      "type": "event"
    },
    {
      "anonymous": false,
      "inputs": [
        {
          "indexed": false,
          "internalType": "address",
          "name": "wallet",
          "type": "address"
        }
      ],
      "name": "WalletFreeze",
      "type": "event"
    },
    {
      "anonymous": false,
      "inputs": [
        {
          "indexed": true,
          "internalType": "address",
          "name": "from",
          "type": "address"
        },
        {
          "indexed": false,
          "internalType": "uint256",
          "name": "withdraw",
          "type": "uint256"
        },
        {
          "indexed": false,
          "internalType": "uint256",
          "name": "creditsAfter",
          "type": "uint256"
        }
      ],
      "name": "Withdraw",
      "type": "event"
    },
    {
      "inputs": [],
      "name": "FIXED_RATE",
      "outputs": [
        {
          "internalType": "uint128",
          "name": "",
          "type": "uint128"
        }
      ],
      "stateMutability": "view",
      "type": "function"
    },
    {
      "inputs": [],
      "name": "FREEZE",
      "outputs": [
        {
          "internalType": "bytes32",
          "name": "",
          "type": "bytes32"
        }
      ],
      "stateMutability": "view",
      "type": "function"
    },
    {
      "inputs": [],
      "name": "PERCENTAGE_RATE",
      "outputs": [
        {
          "internalType": "uint128",
          "name": "",
          "type": "uint128"
        }
      ],
      "stateMutability": "view",
      "type": "function"
    },
    {
      "inputs": [],
      "name": "TRANSFER",
      "outputs": [
        {
          "internalType": "bytes32",
          "name": "",
          "type": "bytes32"
        }
      ],
      "stateMutability": "view",
      "type": "function"
    },
    {
      "inputs": [],
      "name": "acceptedToken",
      "outputs": [
        {
          "internalType": "contract IERC20",
          "name": "",
          "type": "address"
        }
      ],
      "stateMutability": "view",
      "type": "function"
    },
    {
      "inputs": [
        {
          "internalType": "bytes32",
          "name": "_key",
          "type": "bytes32"
        },
        {
          "internalType": "uint128",
          "name": "_code",
          "type": "uint128"
        },
        {
          "internalType": "uint128",
          "name": "_value",
          "type": "uint128"
        }
      ],
      "name": "addFeeComponent",
      "outputs": [],
      "stateMutability": "nonpayable",
      "type": "function"
    },
    {
      "inputs": [
        {
          "components": [
            {
              "internalType": "address",
              "name": "from",
              "type": "address"
            },
            {
              "internalType": "address",
              "name": "to",
              "type": "address"
            },
            {
              "internalType": "uint256",
              "name": "creditAmount",
              "type": "uint256"
            },
            {
              "internalType": "bytes32",
              "name": "key",
              "type": "bytes32"
            }
          ],
          "internalType": "struct Xeenon.BatchTransferUnitWithKey[]",
          "name": "_transfers",
          "type": "tuple[]"
        },
        {
          "internalType": "bytes32",
          "name": "_batchId",
          "type": "bytes32"
        }
      ],
      "name": "batchTransfer",
      "outputs": [],
      "stateMutability": "nonpayable",
      "type": "function"
    },
    {
      "inputs": [
        {
          "components": [
            {
              "internalType": "address",
              "name": "from",
              "type": "address"
            },
            {
              "internalType": "address",
              "name": "to",
              "type": "address"
            },
            {
              "internalType": "uint256",
              "name": "creditAmount",
              "type": "uint256"
            }
          ],
          "internalType": "struct Xeenon.BatchTransferUnit[]",
          "name": "_transfers",
          "type": "tuple[]"
        },
        {
          "internalType": "bytes32",
          "name": "_key",
          "type": "bytes32"
        },
        {
          "internalType": "bytes32",
          "name": "_batchId",
          "type": "bytes32"
        }
      ],
      "name": "batchTransferByKey",
      "outputs": [],
      "stateMutability": "nonpayable",
      "type": "function"
    },
    {
      "inputs": [
        {
          "internalType": "address",
          "name": "_newAdmin",
          "type": "address"
        }
      ],
      "name": "changeAdmin",
      "outputs": [],
      "stateMutability": "nonpayable",
      "type": "function"
    },
    {
      "inputs": [
        {
          "internalType": "address",
          "name": "_newTreasuryReceiver",
          "type": "address"
        }
      ],
      "name": "changeTreasuryReceiver",
      "outputs": [],
      "stateMutability": "nonpayable",
      "type": "function"
    },
    {
      "inputs": [],
      "name": "clearFreezeAccounts",
      "outputs": [],
      "stateMutability": "nonpayable",
      "type": "function"
    },
    {
      "inputs": [],
      "name": "clearTransferAccounts",
      "outputs": [],
      "stateMutability": "nonpayable",
      "type": "function"
    },
    {
      "inputs": [
        {
          "internalType": "uint256",
          "name": "_credits",
          "type": "uint256"
        }
      ],
      "name": "convertFromCredits",
      "outputs": [
        {
          "internalType": "uint256",
          "name": "",
          "type": "uint256"
        }
      ],
      "stateMutability": "pure",
      "type": "function"
    },
    {
      "inputs": [
        {
          "internalType": "uint256",
          "name": "_stableCoins",
          "type": "uint256"
        }
      ],
      "name": "convertToCredits",
      "outputs": [
        {
          "internalType": "uint256",
          "name": "",
          "type": "uint256"
        }
      ],
      "stateMutability": "pure",
      "type": "function"
    },
    {
      "inputs": [
        {
          "internalType": "address",
          "name": "_user",
          "type": "address"
        }
      ],
      "name": "creditBalance",
      "outputs": [
        {
          "internalType": "uint256",
          "name": "",
          "type": "uint256"
        }
      ],
      "stateMutability": "view",
      "type": "function"
    },
    {
      "inputs": [
        {
          "internalType": "bytes32",
          "name": "_key",
          "type": "bytes32"
        }
      ],
      "name": "deleteFeeComponent",
      "outputs": [],
      "stateMutability": "nonpayable",
      "type": "function"
    },
    {
      "inputs": [
        {
          "internalType": "uint256",
          "name": "_amount",
          "type": "uint256"
        }
      ],
      "name": "deposit",
      "outputs": [],
      "stateMutability": "nonpayable",
      "type": "function"
    },
    {
      "inputs": [
        {
          "internalType": "bytes32",
          "name": "",
          "type": "bytes32"
        }
      ],
      "name": "feeComponents",
      "outputs": [
        {
          "internalType": "uint128",
          "name": "code",
          "type": "uint128"
        },
        {
          "internalType": "uint128",
          "name": "value",
          "type": "uint128"
        }
      ],
      "stateMutability": "view",
      "type": "function"
    },
    {
      "inputs": [],
      "name": "freezeWalletWithdraw",
      "outputs": [],
      "stateMutability": "nonpayable",
      "type": "function"
    },
    {
      "inputs": [
        {
          "internalType": "address",
          "name": "_wallet",
          "type": "address"
        }
      ],
      "name": "freezeWalletWithdraw",
      "outputs": [],
      "stateMutability": "nonpayable",
      "type": "function"
    },
    {
      "inputs": [],
      "name": "freezeWithdraw",
      "outputs": [],
      "stateMutability": "nonpayable",
      "type": "function"
    },
    {
      "inputs": [],
      "name": "getAccumulatedRevenue",
      "outputs": [
        {
          "internalType": "uint256",
          "name": "",
          "type": "uint256"
        }
      ],
      "stateMutability": "view",
      "type": "function"
    },
    {
      "inputs": [],
      "name": "getAdmin",
      "outputs": [
        {
          "internalType": "address",
          "name": "",
          "type": "address"
        }
      ],
      "stateMutability": "view",
      "type": "function"
    },
    {
      "inputs": [
        {
          "internalType": "bytes32",
          "name": "_role",
          "type": "bytes32"
        }
      ],
      "name": "getRoleAccounts",
      "outputs": [
        {
          "internalType": "address[]",
          "name": "",
          "type": "address[]"
        }
      ],
      "stateMutability": "view",
      "type": "function"
    },
    {
      "inputs": [],
      "name": "getTreasuryReceiver",
      "outputs": [
        {
          "internalType": "address",
          "name": "",
          "type": "address"
        }
      ],
      "stateMutability": "view",
      "type": "function"
    },
    {
      "inputs": [
        {
          "internalType": "address",
          "name": "_account",
          "type": "address"
        }
      ],
      "name": "grantFreezeRole",
      "outputs": [],
      "stateMutability": "nonpayable",
      "type": "function"
    },
    {
      "inputs": [
        {
          "internalType": "address",
          "name": "_account",
          "type": "address"
        }
      ],
      "name": "grantTransferRole",
      "outputs": [],
      "stateMutability": "nonpayable",
      "type": "function"
    },
    {
      "inputs": [
        {
          "internalType": "bytes32",
          "name": "_role",
          "type": "bytes32"
        },
        {
          "internalType": "address",
          "name": "_account",
          "type": "address"
        }
      ],
      "name": "hasRole",
      "outputs": [
        {
          "internalType": "bool",
          "name": "",
          "type": "bool"
        }
      ],
      "stateMutability": "view",
      "type": "function"
    },
    {
      "inputs": [
        {
          "internalType": "address",
          "name": "_wallet",
          "type": "address"
        }
      ],
      "name": "isWalletFrozen",
      "outputs": [
        {
          "internalType": "bool",
          "name": "",
          "type": "bool"
        }
      ],
      "stateMutability": "view",
      "type": "function"
    },
    {
      "inputs": [],
      "name": "owner",
      "outputs": [
        {
          "internalType": "address",
          "name": "",
          "type": "address"
        }
      ],
      "stateMutability": "view",
      "type": "function"
    },
    {
      "inputs": [],
      "name": "renounceOwnership",
      "outputs": [],
      "stateMutability": "nonpayable",
      "type": "function"
    },
    {
      "inputs": [
        {
          "internalType": "bytes32",
          "name": "_role",
          "type": "bytes32"
        },
        {
          "internalType": "address",
          "name": "_account",
          "type": "address"
        }
      ],
      "name": "renounceRole",
      "outputs": [],
      "stateMutability": "nonpayable",
      "type": "function"
    },
    {
      "inputs": [
        {
          "internalType": "address",
          "name": "_account",
          "type": "address"
        }
      ],
      "name": "revokeFreezeRole",
      "outputs": [],
      "stateMutability": "nonpayable",
      "type": "function"
    },
    {
      "inputs": [
        {
          "internalType": "address",
          "name": "_account",
          "type": "address"
        }
      ],
      "name": "revokeTransferRole",
      "outputs": [],
      "stateMutability": "nonpayable",
      "type": "function"
    },
    {
      "inputs": [
        {
          "internalType": "bytes4",
          "name": "_interfaceId",
          "type": "bytes4"
        }
      ],
      "name": "supportsInterface",
      "outputs": [
        {
          "internalType": "bool",
          "name": "",
          "type": "bool"
        }
      ],
      "stateMutability": "view",
      "type": "function"
    },
    {
      "inputs": [
        {
          "internalType": "address",
          "name": "_from",
          "type": "address"
        },
        {
          "internalType": "address",
          "name": "_to",
          "type": "address"
        },
        {
          "internalType": "uint256",
          "name": "_creditAmount",
          "type": "uint256"
        },
        {
          "internalType": "bytes32",
          "name": "_key",
          "type": "bytes32"
        },
        {
          "internalType": "bytes32",
          "name": "_transferId",
          "type": "bytes32"
        }
      ],
      "name": "transfer",
      "outputs": [],
      "stateMutability": "nonpayable",
      "type": "function"
    },
    {
      "inputs": [
        {
          "internalType": "address",
          "name": "newOwner",
          "type": "address"
        }
      ],
      "name": "transferOwnership",
      "outputs": [],
      "stateMutability": "nonpayable",
      "type": "function"
    },
    {
      "inputs": [
        {
          "internalType": "address",
          "name": "_wallet",
          "type": "address"
        }
      ],
      "name": "unFreezeWalletWithdraw",
      "outputs": [],
      "stateMutability": "nonpayable",
      "type": "function"
    },
    {
      "inputs": [],
      "name": "unFreezeWithdraw",
      "outputs": [],
      "stateMutability": "nonpayable",
      "type": "function"
    },
    {
      "inputs": [
        {
          "internalType": "uint256",
          "name": "_creditAmount",
          "type": "uint256"
        }
      ],
      "name": "withdraw",
      "outputs": [],
      "stateMutability": "nonpayable",
      "type": "function"
    },
    {
      "inputs": [],
      "name": "withdrawRevenue",
      "outputs": [],
      "stateMutability": "nonpayable",
      "type": "function"
    }
  ],
  "bytecode": "0x60a06040523480156200001157600080fd5b5060405162002c0d38038062002c0d833981016040819052620000349162000196565b82828281806200004433620000db565b6200004f816200012b565b50506001600160a01b03928316608052600580546001600160a01b031916919093161790915550506007602052505060027f0b792f89266a186673726a76c4fb9a906aba24ef96adc3a4b1eca09b9f1fedec81905567776974686472617760c01b6000527fa2a8948f8e70d867491c5369432b778cf64bfb175ac904362b51a858ebcdd6e655620001ea565b600080546001600160a01b038381166001600160a01b0319831681178455604051919092169283917f8be0079c531659141344cd1fd0a4f28419497f9722a3daafe3b4186f6b6457e09190a35050565b600180546001600160a01b038381166001600160a01b0319831681179093556040519116919082907f7e644d79422f17c01e4894b5f4f588d331ebfa28653d42ae832dc59e38c9798f90600090a35050565b6001600160a01b03811681146200019357600080fd5b50565b600080600060608486031215620001ac57600080fd5b8351620001b9816200017d565b6020850151909350620001cc816200017d565b6040850151909250620001df816200017d565b809150509250925092565b6080516129f26200021b60003960008181610426015281816108ef01528181610d79015261103401526129f26000f3fe608060405234801561001057600080fd5b50600436106102d35760003560e01c8063715018a611610186578063bab222d8116100e3578063d83af14711610097578063f58ebc7111610071578063f58ebc711461064b578063fc8b9c061461065e578063ffdea8381461068757600080fd5b8063d83af147146105f1578063e1ed0a8214610618578063f2fde38b1461063857600080fd5b8063c9e41645116100c8578063c9e41645146105ce578063cbf23610146105e1578063cfb9abe6146105e957600080fd5b8063bab222d8146105a8578063c0262606146105bb57600080fd5b80638da5cb5b1161013a57806391d148541161011f57806391d148541461053057806395583b0714610569578063b6b55f251461059557600080fd5b80638da5cb5b1461050c5780638f2839701461051d57600080fd5b80637f5a259f1161016b5780637f5a259f146104e957806387d30eb0146104f15780638823ab4d1461050457600080fd5b8063715018a6146104ba57806376420e1d146104c257600080fd5b806336568abe116102345780634f573cb2116101e85780635f8553e7116101cd5780635f8553e7146104835780636ae3010b146104965780636e9960c3146104a957600080fd5b80634f573cb21461047357806354d02fdd1461047b57600080fd5b80633dcfd96a116102195780633dcfd96a1461040e578063451c3d801461042157806347c121e41461046057600080fd5b806336568abe146103e85780633c44159f146103fb57600080fd5b80632e1a7d4d1161028b578063303197521161027057806330319752146103ba57806331ac045a146103c257806333fc7469146103d557600080fd5b80632e1a7d4d1461039f5780632fb18269146103b257600080fd5b8063071e1ef6116102bc578063071e1ef61461032057806319e5ad381461032a57806323db0d6e1461034b57600080fd5b806301ffc9a7146102d857806306a3773e14610300575b600080fd5b6102eb6102e6366004612519565b61069a565b60405190151581526020015b60405180910390f35b610308600181565b6040516001600160801b0390911681526020016102f7565b610328610703565b005b61033d610338366004612543565b61070e565b6040519081526020016102f7565b61037f610359366004612543565b6007602052600090815260409020546001600160801b0380821691600160801b90041682565b604080516001600160801b039384168152929091166020830152016102f7565b6103286103ad366004612543565b610721565b610328610981565b60045461033d565b6103286103d0366004612573565b610a63565b61033d6103e3366004612543565b610a77565b6103286103f636600461258e565b610a8a565b6103286104093660046125ba565b610b12565b61032861041c36600461263c565b610c03565b6104487f000000000000000000000000000000000000000000000000000000000000000081565b6040516001600160a01b0390911681526020016102f7565b61032861046e366004612573565b610d0e565b610328610d41565b610328610da2565b610328610491366004612573565b610db6565b6103286104a4366004612573565b610e43565b6001546001600160a01b0316610448565b610328610e75565b61033d7f9143236d81225394f3bd65b44e6e29fdf4d7ba0773d9bb3f5cc15eb80ba3777781565b610308600281565b6103286104ff366004612543565b610e87565b610448610f04565b6000546001600160a01b0316610448565b61032861052b366004612573565b610f1e565b6102eb61053e36600461258e565b60009182526002602090815260408084206001600160a01b0393909316845291905290205460ff1690565b6102eb610577366004612573565b6001600160a01b031660009081526009602052604090205460ff1690565b6103286105a3366004612543565b610f85565b6103286105b6366004612573565b611105565b6103286105c9366004612573565b611137565b6103286105dc3660046126b7565b6111eb565b610328611254565b610328611294565b61033d7fe34516bfe3507913ffbb1060b18dc3260002b2d60a56130953b46f73fa53539481565b61062b610626366004612543565b611372565b6040516102f79190612704565b610328610646366004612573565b611398565b610328610659366004612768565b611425565b61033d61066c366004612573565b6001600160a01b031660009081526006602052604090205490565b610328610695366004612573565b61158f565b60006001600160e01b031982167fa787c2ea0000000000000000000000000000000000000000000000000000000014806106fd57507f01ffc9a7000000000000000000000000000000000000000000000000000000006001600160e01b03198316145b92915050565b61070c336115a0565b565b60006106fd662386f26fc10000836127ba565b7fa2a8948f8e70d867491c5369432b778cf64bfb175ac904362b51a858ebcdd6e65433600090815260066020526040902054600160801b9091046001600160801b0316908211156107b95760405162461bcd60e51b815260206004820152601e60248201527f596f7520646f6e2774206861766520656e6f75676820637265646974732e000060448201526064015b60405180910390fd5b8082116108085760405162461bcd60e51b815260206004820152601d60248201527f43616e2774207769746864726177206d6f7265207468616e206665652e00000060448201526064016107b0565b60085460ff161561085b5760405162461bcd60e51b815260206004820152601560248201527f576974686472617773206172652066726f7a656e2e000000000000000000000060448201526064016107b0565b3360009081526009602052604090205460ff16156108bb5760405162461bcd60e51b815260206004820152601560248201527f576974686472617773206172652066726f7a656e2e000000000000000000000060448201526064016107b0565b6108c533836115fa565b801561091b576108d4816116a6565b610916336108e56103e384866127dc565b6001600160a01b037f00000000000000000000000000000000000000000000000000000000000000001691906116ba565b610928565b610928336108e584610a77565b610931336115a0565b336000818152600660205260409020547ff279e6a1f5e320cca91135676d9cb6e44ca8a08c0b88342bcdb1144f6511b5689084906040805192835260208301919091520160405180910390a25050565b61098961174b565b7f9143236d81225394f3bd65b44e6e29fdf4d7ba0773d9bb3f5cc15eb80ba37777600090815260036020526109dd7f6e484750233529375800fe87cf1c11a5f9c935c55ee5959e87417a511869d6456117a5565b9050805b8015610a5f57610a4d610a486109f86001846127dc565b7f9143236d81225394f3bd65b44e6e29fdf4d7ba0773d9bb3f5cc15eb80ba3777760005260036020527f6e484750233529375800fe87cf1c11a5f9c935c55ee5959e87417a511869d645906117af565b6117c2565b80610a57816127f3565b9150506109e1565b5050565b610a6b61174b565b610a74816117c2565b50565b60006106fd662386f26fc100008361280a565b6001600160a01b0381163314610b085760405162461bcd60e51b815260206004820152602f60248201527f416363657373436f6e74726f6c3a2063616e206f6e6c792072656e6f756e636560448201527f20726f6c657320666f722073656c66000000000000000000000000000000000060648201526084016107b0565b610a5f82826117e8565b7f9143236d81225394f3bd65b44e6e29fdf4d7ba0773d9bb3f5cc15eb80ba37777610b3c8161188e565b60005b84811015610bd057610bbe868683818110610b5c57610b5c612829565b610b729260206060909202019081019150612573565b878784818110610b8457610b84612829565b9050606002016020016020810190610b9c9190612573565b888885818110610bae57610bae612829565b9050606002016040013587611898565b80610bc88161283f565b915050610b3f565b5060405182907f70395ffd0775e5320d15f9a14e914cdbedac90163307239af4073ece66506b4b90600090a25050505050565b7f9143236d81225394f3bd65b44e6e29fdf4d7ba0773d9bb3f5cc15eb80ba37777610c2d8161188e565b60005b83811015610cdc57610cca858583818110610c4d57610c4d612829565b610c639260206080909202019081019150612573565b868684818110610c7557610c75612829565b9050608002016020016020810190610c8d9190612573565b878785818110610c9f57610c9f612829565b90506080020160400135888886818110610cbb57610cbb612829565b90506080020160600135611898565b80610cd48161283f565b915050610c30565b5060405182907f70395ffd0775e5320d15f9a14e914cdbedac90163307239af4073ece66506b4b90600090a250505050565b7fe34516bfe3507913ffbb1060b18dc3260002b2d60a56130953b46f73fa535394610d388161188e565b610a5f826115a0565b610d4961174b565b6000662386f26fc10000600454610d60919061280a565b6000600455600554909150610a74906001600160a01b037f000000000000000000000000000000000000000000000000000000000000000081169116836116ba565b610daa611ace565b6008805460ff19169055565b610dbe611ace565b6001600160a01b038116610e145760405162461bcd60e51b815260206004820152601b60248201527f6164647265737320697320746865207a65726f2061646472657373000000000060448201526064016107b0565b6005805473ffffffffffffffffffffffffffffffffffffffff19166001600160a01b0392909216919091179055565b610e4b61174b565b610a747fe34516bfe3507913ffbb1060b18dc3260002b2d60a56130953b46f73fa53539482611b28565b610e7d611ace565b61070c6000611bd0565b610e8f611ace565b6000818152600760205260409020546001600160801b0316610ef35760405162461bcd60e51b815260206004820152601360248201527f4b657920646f6573206e6f742065786973742e0000000000000000000000000060448201526064016107b0565b600090815260076020526040812055565b6000610f0e611ace565b506005546001600160a01b031690565b610f26611ace565b6001600160a01b038116610f7c5760405162461bcd60e51b815260206004820152601d60248201527f4e65772061646d696e20697320746865207a65726f206164647265737300000060448201526064016107b0565b610a7481611c2d565b6619195c1bdcda5d60ca1b600090815260076020527f0b792f89266a186673726a76c4fb9a906aba24ef96adc3a4b1eca09b9f1fedec54600160801b90046001600160801b031690610fd68361070e565b90508181116110275760405162461bcd60e51b815260206004820152601c60248201527f43616e2774206465706f736974206c657373207468616e206665652e0000000060448201526064016107b0565b61105c6001600160a01b037f000000000000000000000000000000000000000000000000000000000000000016333086611c8c565b81156110835761106b826116a6565b61107e3361107984846127dc565b611ce3565b61108d565b61108d3382611ce3565b3360009081526009602052604090205460ff166110ad576110ad336115a0565b337f90890809c654f11d6e72a28fa60149770a0d11ec6c92319d6ceb2bb0a4ea1a156110d88561070e565b336000908152600660205260409020546040805192835260208301919091520160405180910390a2505050565b61110d61174b565b610a747f9143236d81225394f3bd65b44e6e29fdf4d7ba0773d9bb3f5cc15eb80ba3777782611b28565b7fe34516bfe3507913ffbb1060b18dc3260002b2d60a56130953b46f73fa5353946111618161188e565b6001600160a01b03821660009081526009602052604090205460ff166111c95760405162461bcd60e51b815260206004820152601660248201527f57616c6c657420776173206e6f742066726f7a656e2e0000000000000000000060448201526064016107b0565b506001600160a01b03166000908152600960205260409020805460ff19169055565b7f9143236d81225394f3bd65b44e6e29fdf4d7ba0773d9bb3f5cc15eb80ba377776112158161188e565b61122186868686611898565b60405182907f09f8589edc1282b0d2f196b13b2dec63d2fb7246d72dce50483312d8a4b8cc1f90600090a2505050505050565b61125c61174b565b6008805460ff191660011790556040517f84258c8d48ccfd0f7dde91a90910d145f3674426f162ba89370d3ec0dc826b1090600090a1565b61129c61174b565b7fe34516bfe3507913ffbb1060b18dc3260002b2d60a56130953b46f73fa535394600090815260036020526112f07fedd6ff994c925cc1c7c78483fcde6c1da24e24138a45fb4ec1b673dd6eb15a746117a5565b9050805b8015610a5f5761136061135b61130b6001846127dc565b7fe34516bfe3507913ffbb1060b18dc3260002b2d60a56130953b46f73fa53539460005260036020527fedd6ff994c925cc1c7c78483fcde6c1da24e24138a45fb4ec1b673dd6eb15a74906117af565b611d07565b8061136a816127f3565b9150506112f4565b606061137c61174b565b60008281526003602052604090206106fd90611d31565b919050565b6113a0611ace565b6001600160a01b03811661141c5760405162461bcd60e51b815260206004820152602660248201527f4f776e61626c653a206e6577206f776e657220697320746865207a65726f206160448201527f646472657373000000000000000000000000000000000000000000000000000060648201526084016107b0565b610a7481611bd0565b61142d611ace565b6001600160801b0382166001148061144e57506001600160801b0382166002145b61149a5760405162461bcd60e51b815260206004820152600c60248201527f496e76616c696420636f6465000000000000000000000000000000000000000060448201526064016107b0565b6001600160801b0382166001141561156757826619195c1bdcda5d60ca1b141580156114e65750827f776974686472617700000000000000000000000000000000000000000000000014155b6115585760405162461bcd60e51b815260206004820152602c60248201527f4465706f7369742f7769746864726177206665652063616e277420626520706560448201527f7263656e7461676520666565000000000000000000000000000000000000000060648201526084016107b0565b6115628382611d3e565b505050565b60008381526007602052604090206002600160801b6001600160801b03841602179055505050565b61159761174b565b610a7481611d07565b6001600160a01b038116600081815260096020908152604091829020805460ff1916600117905590519182527f693fad57b102c0165790fc7e110f4872d5f0b4f4a490af348401d1cef04fbcea910160405180910390a150565b6001600160a01b0382166000908152600660205260409020548111156116625760405162461bcd60e51b815260206004820152601c60248201527f43616e27742068617665206e6567617469766520637265646974732e0000000060448201526064016107b0565b6001600160a01b0382166000908152600660205260409020546116869082906127dc565b6001600160a01b0390921660009081526006602052604090209190915550565b806004546116b4919061285a565b60045550565b6040516001600160a01b0383166024820152604481018290526115629084907fa9059cbb00000000000000000000000000000000000000000000000000000000906064015b60408051601f198184030181529190526020810180517bffffffffffffffffffffffffffffffffffffffffffffffffffffffff166001600160e01b031990931692909217909152611dc1565b6001546001600160a01b0316331461070c5760405162461bcd60e51b815260206004820152601760248201527f43616c6c6572206973206e6f74207468652061646d696e00000000000000000060448201526064016107b0565b60006106fd825490565b60006117bb8383611ea6565b9392505050565b610a747f9143236d81225394f3bd65b44e6e29fdf4d7ba0773d9bb3f5cc15eb80ba37777825b60008281526002602090815260408083206001600160a01b038516845290915290205460ff1615610a5f5760008281526002602090815260408083206001600160a01b03851684528252808320805460ff19169055848352600390915290206118519082611ed0565b5060405133906001600160a01b0383169084907ff6391f5c32d9c69d2a47ea670b442974b53935d1edc7fd64eb21e047a839171b90600090a45050565b610a748133611ee5565b816118b8856001600160a01b031660009081526006602052604090205490565b10156119065760405162461bcd60e51b815260206004820152601360248201527f4e6f7420656e6f75676820637265646974732e0000000000000000000000000060448201526064016107b0565b6000818152600760205260409020546001600160801b031661196a5760405162461bcd60e51b815260206004820152601360248201527f4b657920646f6573206e6f742065786973742e0000000000000000000000000060448201526064016107b0565b60008181526007602052604081205481906001600160801b0316600114156119c0576000838152600760205260409020546119b6908590600160801b90046001600160801b0316611f5a565b9092509050611a10565b6000838152600760205260409020546001600160801b031660021415611a1057600083815260076020526040902054611a0a908590600160801b90046001600160801b0316611fb3565b90925090505b611a1a86856115fa565b611a23816116a6565b611a2d8583611ce3565b846001600160a01b0316866001600160a01b03167f41914561343a4262564f646fc0859ab539b973f22fc78201d3c5cdd954cded478684611a838b6001600160a01b031660009081526006602052604090205490565b6001600160a01b038b166000908152600660205260409020546040805194855260208501939093529183015260608201526080810187905260a00160405180910390a3505050505050565b6000546001600160a01b0316331461070c5760405162461bcd60e51b815260206004820181905260248201527f4f776e61626c653a2063616c6c6572206973206e6f7420746865206f776e657260448201526064016107b0565b60008281526002602090815260408083206001600160a01b038516845290915290205460ff16610a5f5760008281526002602090815260408083206001600160a01b03851684528252808320805460ff1916600117905584835260039091529020611b939082611fdb565b5060405133906001600160a01b0383169084907f2f8788117e7eff1d82e926ec794901d17c78024a50270940304540a733656f0d90600090a45050565b600080546001600160a01b0383811673ffffffffffffffffffffffffffffffffffffffff19831681178455604051919092169283917f8be0079c531659141344cd1fd0a4f28419497f9722a3daafe3b4186f6b6457e09190a35050565b600180546001600160a01b0383811673ffffffffffffffffffffffffffffffffffffffff19831681179093556040519116919082907f7e644d79422f17c01e4894b5f4f588d331ebfa28653d42ae832dc59e38c9798f90600090a35050565b6040516001600160a01b0380851660248301528316604482015260648101829052611cdd9085907f23b872dd00000000000000000000000000000000000000000000000000000000906084016116ff565b50505050565b6001600160a01b03821660009081526006602052604090205461168690829061285a565b610a747fe34516bfe3507913ffbb1060b18dc3260002b2d60a56130953b46f73fa535394826117e8565b606060006117bb83611ff0565b6103e8816001600160801b03161115611d995760405162461bcd60e51b815260206004820152601f60248201527f5f76616c75652063616e2774206265206d6f7265207468616e20313030302e0060448201526064016107b0565b6000918252600760205260409091206001600160801b0391909116600160801b026001179055565b6000611e16826040518060400160405280602081526020017f5361666545524332303a206c6f772d6c6576656c2063616c6c206661696c6564815250856001600160a01b031661204c9092919063ffffffff16565b8051909150156115625780806020019051810190611e349190612872565b6115625760405162461bcd60e51b815260206004820152602a60248201527f5361666545524332303a204552433230206f7065726174696f6e20646964206e60448201527f6f7420737563636565640000000000000000000000000000000000000000000060648201526084016107b0565b6000826000018281548110611ebd57611ebd612829565b9060005260206000200154905092915050565b60006117bb836001600160a01b038416612063565b60008281526002602090815260408083206001600160a01b038516845290915290205460ff16610a5f57611f1881612156565b611f23836020612168565b604051602001611f349291906128c0565b60408051601f198184030181529082905262461bcd60e51b82526107b091600401612941565b60008082611f6d57508290506000611fac565b60006103e8611f7c858761280a565b611f88906101f461285a565b611f9291906127ba565b905080611f9d575060015b611fa781866127dc565b925090505b9250929050565b60008083831115611fc957506000905082611fac565b611fd383856127dc565b949293505050565b60006117bb836001600160a01b038416612349565b60608160000180548060200260200160405190810160405280929190818152602001828054801561204057602002820191906000526020600020905b81548152602001906001019080831161202c575b50505050509050919050565b606061205b8484600085612398565b949350505050565b6000818152600183016020526040812054801561214c5760006120876001836127dc565b855490915060009061209b906001906127dc565b90508181146121005760008660000182815481106120bb576120bb612829565b90600052602060002001549050808760000184815481106120de576120de612829565b6000918252602080832090910192909255918252600188019052604090208390555b855486908061211157612111612974565b6001900381819060005260206000200160009055905585600101600086815260200190815260200160002060009055600193505050506106fd565b60009150506106fd565b60606106fd6001600160a01b03831660145b6060600061217783600261280a565b61218290600261285a565b67ffffffffffffffff81111561219a5761219a61298a565b6040519080825280601f01601f1916602001820160405280156121c4576020820181803683370190505b5090507f3000000000000000000000000000000000000000000000000000000000000000816000815181106121fb576121fb612829565b60200101906001600160f81b031916908160001a9053507f78000000000000000000000000000000000000000000000000000000000000008160018151811061224657612246612829565b60200101906001600160f81b031916908160001a905350600061226a84600261280a565b61227590600161285a565b90505b60018111156122fa577f303132333435363738396162636465660000000000000000000000000000000085600f16601081106122b6576122b6612829565b1a60f81b8282815181106122cc576122cc612829565b60200101906001600160f81b031916908160001a90535060049490941c936122f3816127f3565b9050612278565b5083156117bb5760405162461bcd60e51b815260206004820181905260248201527f537472696e67733a20686578206c656e67746820696e73756666696369656e7460448201526064016107b0565b6000818152600183016020526040812054612390575081546001818101845560008481526020808220909301849055845484825282860190935260409020919091556106fd565b5060006106fd565b6060824710156124105760405162461bcd60e51b815260206004820152602660248201527f416464726573733a20696e73756666696369656e742062616c616e636520666f60448201527f722063616c6c000000000000000000000000000000000000000000000000000060648201526084016107b0565b6001600160a01b0385163b6124675760405162461bcd60e51b815260206004820152601d60248201527f416464726573733a2063616c6c20746f206e6f6e2d636f6e747261637400000060448201526064016107b0565b600080866001600160a01b0316858760405161248391906129a0565b60006040518083038185875af1925050503d80600081146124c0576040519150601f19603f3d011682016040523d82523d6000602084013e6124c5565b606091505b50915091506124d58282866124e0565b979650505050505050565b606083156124ef5750816117bb565b8251156124ff5782518084602001fd5b8160405162461bcd60e51b81526004016107b09190612941565b60006020828403121561252b57600080fd5b81356001600160e01b0319811681146117bb57600080fd5b60006020828403121561255557600080fd5b5035919050565b80356001600160a01b038116811461139357600080fd5b60006020828403121561258557600080fd5b6117bb8261255c565b600080604083850312156125a157600080fd5b823591506125b16020840161255c565b90509250929050565b600080600080606085870312156125d057600080fd5b843567ffffffffffffffff808211156125e857600080fd5b818701915087601f8301126125fc57600080fd5b81358181111561260b57600080fd5b88602060608302850101111561262057600080fd5b6020928301999098509187013596604001359550909350505050565b60008060006040848603121561265157600080fd5b833567ffffffffffffffff8082111561266957600080fd5b818601915086601f83011261267d57600080fd5b81358181111561268c57600080fd5b8760208260071b85010111156126a157600080fd5b6020928301989097509590910135949350505050565b600080600080600060a086880312156126cf57600080fd5b6126d88661255c565b94506126e66020870161255c565b94979496505050506040830135926060810135926080909101359150565b6020808252825182820181905260009190848201906040850190845b818110156127455783516001600160a01b031683529284019291840191600101612720565b50909695505050505050565b80356001600160801b038116811461139357600080fd5b60008060006060848603121561277d57600080fd5b8335925061278d60208501612751565b915061279b60408501612751565b90509250925092565b634e487b7160e01b600052601160045260246000fd5b6000826127d757634e487b7160e01b600052601260045260246000fd5b500490565b6000828210156127ee576127ee6127a4565b500390565b600081612802576128026127a4565b506000190190565b6000816000190483118215151615612824576128246127a4565b500290565b634e487b7160e01b600052603260045260246000fd5b6000600019821415612853576128536127a4565b5060010190565b6000821982111561286d5761286d6127a4565b500190565b60006020828403121561288457600080fd5b815180151581146117bb57600080fd5b60005b838110156128af578181015183820152602001612897565b83811115611cdd5750506000910152565b7f416363657373436f6e74726f6c3a206163636f756e74200000000000000000008152600083516128f8816017850160208801612894565b7f206973206d697373696e6720726f6c65200000000000000000000000000000006017918401918201528351612935816028840160208801612894565b01602801949350505050565b6020815260008251806020840152612960816040850160208701612894565b601f01601f19169190910160400192915050565b634e487b7160e01b600052603160045260246000fd5b634e487b7160e01b600052604160045260246000fd5b600082516129b2818460208701612894565b919091019291505056fea264697066735822122030835f87a8ee0988f52d5b1f683d54f3f7b7a76fce50efd81190a847b2c00d2264736f6c634300080c0033",
  "linkReferences": {},
  "deployedLinkReferences": {}
}